:020000002628B0
:0E0006008312031321088A00200882000800DC
:100014000030831203132306031D12280030220626
:10002400031919280130A202031CA3030A2808009B
:1000340003208A110A128000840AA00A0319A10A63
:08004400F003031D1A28080057
:10004C00FF308316031385008601870177308F00FC
:10005C00031788018901831203138601013086007E
:10006C00FF30A2007F30A3000A2002308600FF3050
:10007C00A2007F30A3000A2004308600FF30A200CB
:10008C007F30A3000A2008308600FF30A2007F30AA
:10009C00A3000A2010308600FF30A2007F30A3009E
:1000AC000A2020308600FF30A2007F30A3000A20F7
:1000BC0040308600FF30A2007F30A3000A20803041
:1000CC008600FF30A2007F30A3000A2031286D2863
:04400E00F22F000786
:00000001FF
