:02000000E92BEA
:10000800FF00030E8301C3000A08C2008A01A30A85
:100018000319A40A0B1142088A00430E8300FF0E3D
:040028007F0E09003E
:10002C00403083120313F0001F30F100F201F30192
:02003C000800BA
:10003E0083120313FB01FA01F9018030F800F10C71
:10004E00F00C031C33287408F90775080318750F94
:10005E00FA070318FB0A0310F01F3B287408FA076F
:10006E0075080318750FFB07FB0CFA0CF90CF80C4E
:10007E00031C26287B08F3007A08F2007908F100A9
:06008E007808F0000800F4
:10009400831203132230FC00F801F901FA01FB0179
:1000A400FC03031980280310FB0CFA0CF90CF80C60
:1000B400F30CF20CF10CF00C031C5228FC03031992
:1000C40072287408F80775080318750FF90776087D
:1000D4000318760FFA0777080318770FFB075628DB
:1000E4007408F80775080318750FF90776080318DC
:0E00F400760FFA0777080318770FFB0708004E
:1001020083120313D403D4035408003C03188E282B
:10011200D403000000000000852800000000000059
:06012200000000000800CF
:1001280083120313FB01FA01F901F801A001730D11
:10013800F80D7408F8027508031C750FF9027608A3
:10014800031C760FFA027708031C770FFB020001E5
:10015800031C0130A002F30D0730FC00730DF80DED
:10016800F90DFA0DFB0DA00D7408731CCD28F802CB
:100178007508031C750FF9027608031C760FFA023E
:100188007708031C770FFB020001031C0130A00253
:10019800DE28F80775080318750FF907760803189D
:1001A800760FFA0777080318770FFB070001031883
:1001B8000130A007F30DFC0BB228720DF80DF90DF4
:1001C800FA0DFB0DA00D7408731CFC28F8027508C5
:1001D800031C750FF9027608031C760FFA027708DC
:1001E800031C770FFB020001031C0130A0020D293C
:1001F800F80775080318750FF90776080318760FBE
:10020800FA0777080318770FFB0700010318013076
:10021800A007F20D0730FC00720DF80DF90DFA0D6C
:10022800FB0DA00D7408721C2B29F8027508031C1D
:10023800750FF9027608031C760FFA027708031C7B
:10024800770FFB020001031C0130A0023C29F807CC
:1002580075080318750FF90776080318760FFA075B
:1002680077080318770FFB07000103180130A00770
:10027800F20DFC0B1029710DF80DF90DFA0DFB0D9F
:10028800A00D7408721C5A29F8027508031C750F12
:10029800F9027608031C760FFA027708031C770F19
:1002A800FB020001031C0130A0026B29F807750846
:1002B8000318750FF90776080318760FFA077708F9
:1002C8000318770FFB07000103180130A007F10D91
:1002D8000730FC00710DF80DF90DFA0DFB0DA00D9E
:1002E8007408711C8929F8027508031C750FF90236
:1002F8007608031C760FFA027708031C770FFB02B7
:100308000001031C0130A0029A29F8077508031898
:10031800750FF90776080318760FFA077708031898
:10032800770FFB07000103180130A007F10DFC0B44
:100338006E29700DF80DF90DFA0DFB0DA00D74085E
:10034800711CB829F8027508031C750FF9027608A4
:10035800031C760FFA027708031C770FFB020001D3
:10036800031C0130A002C929F80775080318750F86
:10037800F90776080318760FFA0777080318770F36
:10038800FB07000103180130A007F00D0730FC003F
:10039800700DF80DF90DFA0DFB0DA00D7408701C09
:1003A800E729F8027508031C750FF9027608031C83
:1003B800760FFA027708031C770FFB020001031C73
:1003C8000130A002F829F80775080318750FF90716
:1003D80076080318760FFA0777080318770FFB07D4
:1003E800000103180130A007F00DFC0BCC29701890
:1003F8000B2A7408F80775080318750FF9077608AB
:100408000318760FFA0777080318770FFB07080019
:1004180083120313F801F9011030FC00710DF80D77
:10042800F90D7408F8027508031C750FF902031812
:10043800242A7408F80775080318750FF9070310BC
:0A044800F00DF10DFC0B122A080064
:10045200710DF80DF90D7408F8027508031C750F7B
:10046200F902F00DF10D0F30FC00710DF80DF90DD0
:100472007408701C422AF8027508031C750FF902F1
:10048200472AF80775080318750FF907F00DF10DE3
:10049200FC0B362A7018532A7408F80775080318DB
:0804A200750FF90700000800C6
:0E04AA00831203133E088A003D0882000800FA
:1004B800831203137408003A031D6B2A7508003A67
:1004C800031D6B2AFF30F0007F30F100C42A83122D
:1004D8000313FD01F901F8017108700403190034D0
:1004E80071087506FA00FA1BFD09FB01F51F812A40
:1004F800F409F509F40A0319F50AF11F882AF00925
:10050800F109F00A0319F10A71087504FA00FA1BD7
:100518009D2A29227B18B02AFD1F0034F009F10911
:10052800F00A0319F10AF809F909F80A0319F90A8E
:100538000034F51FAC2AF11BA82A7108F9007008CD
:10054800F800F101F001902AF101F001F00A0034FD
:10055800F109F009FB0A8D2AF80A0319F90A740847
:100568007802031D902A75087902031D902AF90163
:10057800F801F00A0319F10AF11F902A0000FF346C
:02058800080069
:10058A001620E830F4000330F500F601F7014A209E
:10059A007008D0007108D1007208D2007308D30025
:1005AA004808F4004908F500F601F701942070089C
:1005BA00D0007108D1007208D2007308D300700805
:1005CA00F5007108F6007208F7007308F800F80CD5
:1005DA00F70CF60CF50CF813F80CF70CF60CF50CF6
:1005EA00F8137508F0007608F1007708F200780829
:1005FA00F300F30CF20CF10CF00CF3137008CC00BE
:10060A007108CD0016204A08F4004B08F500F601DF
:10061A00F7014A204C08F9004D08FA00FB01FC01D9
:10062A000330F8007908F4007A08F5007B08F60030
:10063A007C08F70078080319292BF40DF50DF60D3F
:10064A00F70D7410FF3E202B94207008D00071081B
:10065A00D1007208D2007308D3000A30F4000030C7
:10066A00F5004C08F0004D08F1000C227008CC008F
:10067A007108CD0000307102031D452B0330700252
:10068A000318482B952B410884005308003C031D8E
:10069A00582B5208003C031D582B5108003C031DDF
:1006AA00582B5008003C0318932B400880044D082F
:1006BA0003196F2BCE01CF0100304F02031D672BA8
:1006CA004D084E0203186F2BD4018120CE0A03195C
:1006DA00CF0A612B4C08D40081203F0880054D08C1
:1006EA000319872BCE01CF0100304F02031D7F2B48
:1006FA004D084E020318872BD4018120CE0A031914
:10070A00CF0A792B4C08D40081200130D002031C77
:10071A00D102031CD202031CD3024A2B3F088005D4
:02072A000800C5
:10072C00013083120313CE000030CF00CC01CD0179
:10073C0080304D06F00080304B067002031DA82B54
:10074C004A084C020318BB2B4E08F0004F08F1006E
:10075C004808F4004908F5001F207008CE00710805
:10076C00CF00CC0A0319CD0A9E2B4E08F0004F087F
:04077C00F100080080
:10078000831203134808C1004908F1000130F0004A
:1007900071080319CF2BF00D7010FF3EC92B7008A4
:1007A000C000F0097008BF0080304807840070085E
:0A07B000800584137008800508001E
:1007BA0055228A110A128000840ABD0A0319BE0A48
:0807CA00F003031DDD2B080004
:1007D20083120313A101A201A301A4013B30A500CE
:1007E200A601A701A801FC30A900AA016030AB0054
:1007F200AC01DA30AD00AE01F230AF00B0016630CC
:10080200B100B201B630B300B401BE30B500B601DA
:10081200E030B700B801FE30B900BA01F630BB00D3
:10082200BC01F030831685008601870177308F0086
:100832000317880189018B178B160B110116811280
:100842008111011081100115073083120313C800B2
:100852000230C900C0238030F000803024067002CC
:10086200031D352C2308FA3C0318462CA50A03194C
:10087200A60AA301A4018501B830C8000B30C90043
:100882006430CA000030CB00C5228030F0008030D6
:1008920026067002031D4F2C25083B3C0318562CDC
:1008A200A501A601A10A0319A20AA701A801803085
:1008B2002806F00080307002031D612C04302702EC
:1008C2000318DA2C80302806F00080307002031DF5
:1008D2006C2C023027020318772C25083B3CC400FD
:1008E2002608031C013EC501C5027F2C21080A3CD3
:1008F200C4002208031C013EC501C5020A30C8001B
:100902000030C90080302806F00080307002031DDC
:100912008C2C023027020318932C2708C6002808C3
:10092200C7009B2C02302702C6000030031C013E88
:100932002802C7004608CA004708CB009623700861
:10094200F4007108F5004408F0004508F1005C224B
:100952000A30F4000030F5005C227808F0007908D3
:10096200F1007008F2007108F300F20DF30D72103D
:100972007208293E84000008860000302806031D04
:10098200C42C02302706031DC72C06142708F100C9
:100992000830F00071080319D42CF00CF013701B0E
:1009A200F017FF3ECC2C70088500A70A0319A80A8D
:1009B200582C00302606031DE02C00302506031DAE
:1009C200EB2C00302206031DE82C0A302106031D01
:1009D200EB2CEC2C2C2CFF308500FF308600B8303D
:1009E200C8000B30C9008830CA001330CB00C522C2
:0209F200F92CDE
:04400E00F22F000786
:00000001FF
