:02000000AC282A
:10000800FF00030E8301A6000A08A7008A017C08E6
:10001800A1007D08A000FF3087000230FB000430FB
:10002800FC00BA30FD00FD0B1728FC0B1728FB0B52
:10003800172800008B102108FC002008FD00270865
:0C0048008A00260E8300FF0E7F0E0900C8
:0E0054008312031325088A0024088200080086
:100062002A208A110A128000840AA40A0319A50A06
:08007200F003031D3128080012
:10007A000130831203138700051C492807184728F3
:10008A002814482828104E2807184D2828104E28CA
:10009A00281428185228071053280714A201A3016C
:1000AA0080302306F00080307002031D5E280E3077
:1000BA0022020318AB28051C682807186628A8140A
:1000CA006728A8106D2807186C28A8106D28A8148E
:1000DA00A818712807107228071480302306F00028
:1000EA0080307002031D7B280730220203188428FF
:1000FA000708F100F201F10DF20D71108B280708C3
:10010A00F100F201F10CF1130030F20071088700DE
:10011A00051C9528071893282815942828119A2829
:10012A000718992828119A28281528199E2807108F
:10013A009F280714C330FC00CD30FD00FD0BA32817
:0E014A00FC0BA328A20A0319A30A55280800DB
:1001580083120313A201A301FF30831685008601D1
:10016800870177308F000317880189018B170B16D9
:100178008B100130831203138700C330FC00CD308D
:10018800FD00FD0BC528FC0BC5283D20C928CB2840
:04400E00F22F000786
:00000001FF
