:020000000029D5
:10000600710DF80DF90D7408F8027508031C750FCB
:10001600F902F00DF10D0F30FC00710DF80DF90D20
:100026007408701C1C28F8027508031C750FF90269
:100036002128F80775080318750FF907F00DF10D5B
:10004600FC0B102870182D287408F807750803187B
:08005600750FF9070000080016
:0E005E008312031339088A0038088200080054
:10006C0083120313FB01FA01F9018030F800F10C43
:10007C00F00C031C4A287408F90775080318750F4F
:10008C00FA070318FB0A0310F01F52287408FA072A
:10009C0075080318750FFB07FB0CFA0CF90CF80C20
:1000AC00031C3D287B08F3007A08F2007908F10064
:0600BC007808F0000800C6
:1000C200831203137408003A031D70287508003A5E
:1000D200031D7028FF30F0007F30F100C928831221
:1000E2000313FD01F901F8017108700403190034CA
:1000F20071087506FA00FA1BFD09FB01F51F862837
:10010200F409F509F40A0319F50AF11F8D28F0091B
:10011200F109F00A0319F10A71087504FA00FA1BD1
:10012200A22803207B18B528FD1F0034F009F1092D
:10013200F00A0319F10AF809F909F80A0319F90A88
:100142000034F51FB128F11BAD287108F9007008C1
:10015200F800F101F0019528F101F001F00A0034F4
:10016200F109F009FB0A9228F80A0319F90A74083E
:100172007802031D952875087902031D9528F90157
:10018200F801F00A0319F10AF11F95280000FF3463
:02019200080063
:100194002F208A110A128000840AB80A0319B90AA6
:0801A400F003031DCA28080046
:1001AC00013083120313C0000030C100BE01BF0137
:1001BC0080303F06F00080303D067002031DE828B9
:1001CC003C083E020318FB284008F0004108F100EF
:1001DC003A08F4003B08F50036207008C00071089E
:1001EC00C100BE0A0319BF0ADE284008F00041080E
:0401FC00F100080006
:10020000FC3083120313A000A1016030A200A301FF
:10021000DA30A400A501F230A600A7016630A800DC
:10022000A901B630AA00AB01BE30AC00AD01E03090
:10023000AE00AF01FE30B000B101F630B200B30144
:10024000B401B501831685018601870177308F00DF
:100250000317880189018B178B160B1181128115E9
:100260000112011181100110E83083120313B40050
:100270000330B5008030F000803035067002031D79
:1002800043293408003C0318A329B601B701803084
:100290003706F00080307002031D5029043036020A
:1002A00003189E290A30BA000030BB003608BC0093
:1002B0003708BD00D6207008F4007108F500340836
:1002C000F0003508F10061200A30F4000030F5003C
:1002D00061207808F0007908F1007008F2007108D8
:1002E000F300F20DF30D72107208203E8400000836
:1002F000860000303706031D7F2902303606031DB5
:10030000822906143608F1000830F000710803193C
:100310008F29F00CF013701BF017FF3E872970082F
:1003200085000630FC003030FD00FD0B9529FC0BEC
:1003300095290000B60A0319B70A47290130B4020B
:10034000031CB5033A29B601B70180303706F00027
:1003500080307002031DAE29043036020318CE2906
:10036000050986003608F1000830F000710803190D
:10037000BF29F00CF013701BF017FF3EB72970086F
:1003800085000630FC003030FD00FD0BC529FC0B5C
:10039000C5290000B60A0319B70AA529A329CF2940
:04400E00F22F000786
:00000001FF
