:02000000652871
:0E0006008312031323088A00220882000800D8
:1000140003208A110A128000840AA20A0319A30A7F
:08002400F003031D0A28080087
:10002C000130831203138700A001A1018030210647
:10003C00F00080307002031D2528073020020318C1
:10004C0039280708F000F00D701070088700C330D5
:10005C00FC00CD30FD00FD0B3128FC0B3128A00A33
:10006C000319A10A1C28A001A10180302106F0006F
:10007C0080307002031D44280730200203185828D2
:10008C000708F000F00CF01370088700C330FC0078
:10009C00CD30FD00FD0B5028FC0B5028A00A031995
:0600AC00A10A3B28080038
:1000B200FF308316031385008601870177308F0096
:0800C200031788018901080001
:1000CA0083120313A001A1015920013083120313E3
:1000DA008700C330FC00CD30FD00FD0B7228FC0BFD
:0800EA00722816207628782800
:04400E00F22F000786
:00000001FF
