:02000000612875
:0E0006008312031323088A00220882000800D8
:1000140003208A110A128000840AA20A0319A30A7F
:08002400F003031D0A28080087
:10002C00013083120313870001308706A001A10160
:10003C0080302106F00080307002031D27280E301E
:10004C002002031854280130870680302106F00066
:10005C0080307002031D34280730200203183D281D
:10006C000708F100F201F10DF20D71104428070898
:10007C00F100F201F10CF1130030F200710887006D
:10008C0001308706C330FC00CD30FD00FD0B4C2841
:0E009C00FC0B4C28A00A0319A10A1E2808001C
:1000AA00FF308316031385008601870177308F009E
:0800BA00031788018901080009
:1000C20083120313A001A1015520013083120313EF
:1000D2008700C330FC00CD30FD00FD0B6E28FC0B09
:0800E2006E2816207228742814
:04400E00F22F000786
:00000001FF
